{
  "_format": "hh-sol-artifact-1",
  "contractName": "SplitSum",
  "sourceName": "contracts/SplitSum.sol",
  "abi": [
    {
      "inputs": [
        {
          "internalType": "contract IERC20",
          "name": "settlementTokenInStableCoin",
          "type": "address"
        }
      ],
      "stateMutability": "nonpayable",
      "type": "constructor"
    },
    {
      "anonymous": false,
      "inputs": [
        {
          "indexed": true,
          "internalType": "address",
          "name": "userAddress",
          "type": "address"
        },
        {
          "indexed": true,
          "internalType": "address",
          "name": "contactAddress",
          "type": "address"
        },
        {
          "indexed": false,
          "internalType": "string",
          "name": "name",
          "type": "string"
        },
        {
          "indexed": false,
          "internalType": "string",
          "name": "email",
          "type": "string"
        }
      ],
      "name": "ContactAdded",
      "type": "event"
    },
    {
      "anonymous": false,
      "inputs": [
        {
          "indexed": true,
          "internalType": "bytes32",
          "name": "expenseId",
          "type": "bytes32"
        },
        {
          "indexed": true,
          "internalType": "bytes32",
          "name": "groupId",
          "type": "bytes32"
        },
        {
          "indexed": true,
          "internalType": "address",
          "name": "paidByUserAddress",
          "type": "address"
        },
        {
          "indexed": false,
          "internalType": "uint256",
          "name": "amount",
          "type": "uint256"
        },
        {
          "indexed": false,
          "internalType": "string",
          "name": "description",
          "type": "string"
        },
        {
          "indexed": false,
          "internalType": "uint256",
          "name": "createdAtTimestamp",
          "type": "uint256"
        },
        {
          "indexed": false,
          "internalType": "address[]",
          "name": "memberAddresses",
          "type": "address[]"
        }
      ],
      "name": "ExpenseCreated",
      "type": "event"
    },
    {
      "anonymous": false,
      "inputs": [
        {
          "indexed": true,
          "internalType": "bytes32",
          "name": "groupId",
          "type": "bytes32"
        },
        {
          "indexed": true,
          "internalType": "address",
          "name": "ownerAddress",
          "type": "address"
        },
        {
          "indexed": false,
          "internalType": "string",
          "name": "name",
          "type": "string"
        },
        {
          "indexed": false,
          "internalType": "string",
          "name": "description",
          "type": "string"
        },
        {
          "indexed": false,
          "internalType": "uint256",
          "name": "createdAtTimestamp",
          "type": "uint256"
        }
      ],
      "name": "GroupCreated",
      "type": "event"
    },
    {
      "anonymous": false,
      "inputs": [
        {
          "indexed": true,
          "internalType": "bytes32",
          "name": "settlementId",
          "type": "bytes32"
        },
        {
          "indexed": true,
          "internalType": "bytes32",
          "name": "groupId",
          "type": "bytes32"
        },
        {
          "indexed": true,
          "internalType": "address",
          "name": "settledByUserAddress",
          "type": "address"
        },
        {
          "indexed": false,
          "internalType": "uint256",
          "name": "amount",
          "type": "uint256"
        },
        {
          "indexed": false,
          "internalType": "uint256",
          "name": "createdAtTimestamp",
          "type": "uint256"
        },
        {
          "indexed": false,
          "internalType": "address[]",
          "name": "memberAddresses",
          "type": "address[]"
        }
      ],
      "name": "SettlementCreated",
      "type": "event"
    },
    {
      "anonymous": false,
      "inputs": [
        {
          "indexed": true,
          "internalType": "address",
          "name": "userAddress",
          "type": "address"
        },
        {
          "indexed": false,
          "internalType": "string",
          "name": "name",
          "type": "string"
        },
        {
          "indexed": false,
          "internalType": "string",
          "name": "email",
          "type": "string"
        }
      ],
      "name": "UserProfileUpdated",
      "type": "event"
    },
    {
      "inputs": [
        {
          "internalType": "address",
          "name": "contactAddress",
          "type": "address"
        },
        {
          "internalType": "string",
          "name": "name",
          "type": "string"
        },
        {
          "internalType": "string",
          "name": "email",
          "type": "string"
        }
      ],
      "name": "addContact",
      "outputs": [],
      "stateMutability": "nonpayable",
      "type": "function"
    },
    {
      "inputs": [
        {
          "internalType": "bytes32",
          "name": "groupId",
          "type": "bytes32"
        },
        {
          "internalType": "address",
          "name": "memberAddress",
          "type": "address"
        }
      ],
      "name": "addGroupMembership",
      "outputs": [],
      "stateMutability": "nonpayable",
      "type": "function"
    },
    {
      "inputs": [
        {
          "internalType": "bytes32",
          "name": "groupId",
          "type": "bytes32"
        },
        {
          "internalType": "uint256",
          "name": "amount",
          "type": "uint256"
        },
        {
          "internalType": "string",
          "name": "description",
          "type": "string"
        },
        {
          "internalType": "uint256",
          "name": "createdAtTimestamp",
          "type": "uint256"
        },
        {
          "internalType": "address[]",
          "name": "memberAddresses",
          "type": "address[]"
        }
      ],
      "name": "createExpense",
      "outputs": [],
      "stateMutability": "nonpayable",
      "type": "function"
    },
    {
      "inputs": [
        {
          "internalType": "string",
          "name": "name",
          "type": "string"
        },
        {
          "internalType": "string",
          "name": "description",
          "type": "string"
        },
        {
          "internalType": "uint256",
          "name": "createdAtTimestamp",
          "type": "uint256"
        },
        {
          "internalType": "address[]",
          "name": "memberAddresses",
          "type": "address[]"
        }
      ],
      "name": "createGroup",
      "outputs": [],
      "stateMutability": "nonpayable",
      "type": "function"
    },
    {
      "inputs": [
        {
          "internalType": "bytes32",
          "name": "expenseId",
          "type": "bytes32"
        }
      ],
      "name": "getExpense",
      "outputs": [
        {
          "components": [
            {
              "internalType": "bytes32",
              "name": "expenseId",
              "type": "bytes32"
            },
            {
              "internalType": "bytes32",
              "name": "groupId",
              "type": "bytes32"
            },
            {
              "internalType": "address",
              "name": "paidByUserAddress",
              "type": "address"
            },
            {
              "internalType": "uint256",
              "name": "amount",
              "type": "uint256"
            },
            {
              "internalType": "string",
              "name": "description",
              "type": "string"
            },
            {
              "internalType": "uint256",
              "name": "createdAtTimestamp",
              "type": "uint256"
            },
            {
              "internalType": "address[]",
              "name": "memberAddresses",
              "type": "address[]"
            }
          ],
          "internalType": "struct SplitSum.Expense",
          "name": "",
          "type": "tuple"
        }
      ],
      "stateMutability": "view",
      "type": "function"
    },
    {
      "inputs": [
        {
          "internalType": "bytes32",
          "name": "groupId",
          "type": "bytes32"
        }
      ],
      "name": "getGroup",
      "outputs": [
        {
          "components": [
            {
              "internalType": "bytes32",
              "name": "groupId",
              "type": "bytes32"
            },
            {
              "internalType": "address",
              "name": "ownerAddress",
              "type": "address"
            },
            {
              "internalType": "string",
              "name": "name",
              "type": "string"
            },
            {
              "internalType": "string",
              "name": "description",
              "type": "string"
            },
            {
              "internalType": "uint256",
              "name": "createdAtTimestamp",
              "type": "uint256"
            },
            {
              "internalType": "address[]",
              "name": "memberAddresses",
              "type": "address[]"
            }
          ],
          "internalType": "struct SplitSum.Group",
          "name": "",
          "type": "tuple"
        }
      ],
      "stateMutability": "view",
      "type": "function"
    },
    {
      "inputs": [
        {
          "internalType": "bytes32",
          "name": "settlementId",
          "type": "bytes32"
        }
      ],
      "name": "getSettlement",
      "outputs": [
        {
          "components": [
            {
              "internalType": "bytes32",
              "name": "settlementId",
              "type": "bytes32"
            },
            {
              "internalType": "bytes32",
              "name": "groupId",
              "type": "bytes32"
            },
            {
              "internalType": "address",
              "name": "settledByUserAddress",
              "type": "address"
            },
            {
              "internalType": "uint256",
              "name": "amount",
              "type": "uint256"
            },
            {
              "internalType": "uint256",
              "name": "createdAtTimestamp",
              "type": "uint256"
            },
            {
              "internalType": "address[]",
              "name": "memberAddresses",
              "type": "address[]"
            }
          ],
          "internalType": "struct SplitSum.Settlement",
          "name": "",
          "type": "tuple"
        }
      ],
      "stateMutability": "view",
      "type": "function"
    },
    {
      "inputs": [],
      "name": "getUserProfile",
      "outputs": [
        {
          "components": [
            {
              "internalType": "address",
              "name": "userAddress",
              "type": "address"
            },
            {
              "internalType": "string",
              "name": "name",
              "type": "string"
            },
            {
              "internalType": "string",
              "name": "email",
              "type": "string"
            }
          ],
          "internalType": "struct SplitSum.User",
          "name": "",
          "type": "tuple"
        }
      ],
      "stateMutability": "view",
      "type": "function"
    },
    {
      "inputs": [],
      "name": "listContacts",
      "outputs": [
        {
          "components": [
            {
              "internalType": "address",
              "name": "userAddress",
              "type": "address"
            },
            {
              "internalType": "string",
              "name": "name",
              "type": "string"
            },
            {
              "internalType": "string",
              "name": "email",
              "type": "string"
            }
          ],
          "internalType": "struct SplitSum.User[]",
          "name": "",
          "type": "tuple[]"
        }
      ],
      "stateMutability": "view",
      "type": "function"
    },
    {
      "inputs": [
        {
          "internalType": "bytes32",
          "name": "expenseId",
          "type": "bytes32"
        }
      ],
      "name": "listExpenseMembers",
      "outputs": [
        {
          "components": [
            {
              "internalType": "address",
              "name": "memberAddress",
              "type": "address"
            },
            {
              "internalType": "uint256",
              "name": "amount",
              "type": "uint256"
            }
          ],
          "internalType": "struct SplitSum.ExpenseMember[]",
          "name": "",
          "type": "tuple[]"
        }
      ],
      "stateMutability": "view",
      "type": "function"
    },
    {
      "inputs": [
        {
          "internalType": "bytes32",
          "name": "groupId",
          "type": "bytes32"
        }
      ],
      "name": "listGroupMemberships",
      "outputs": [
        {
          "components": [
            {
              "internalType": "address",
              "name": "memberAddress",
              "type": "address"
            },
            {
              "internalType": "int256",
              "name": "balance",
              "type": "int256"
            }
          ],
          "internalType": "struct SplitSum.Membership[]",
          "name": "",
          "type": "tuple[]"
        }
      ],
      "stateMutability": "view",
      "type": "function"
    },
    {
      "inputs": [],
      "name": "listMembershipGroups",
      "outputs": [
        {
          "components": [
            {
              "internalType": "bytes32",
              "name": "groupId",
              "type": "bytes32"
            },
            {
              "internalType": "address",
              "name": "ownerAddress",
              "type": "address"
            },
            {
              "internalType": "string",
              "name": "name",
              "type": "string"
            },
            {
              "internalType": "string",
              "name": "description",
              "type": "string"
            },
            {
              "internalType": "uint256",
              "name": "createdAtTimestamp",
              "type": "uint256"
            },
            {
              "internalType": "address[]",
              "name": "memberAddresses",
              "type": "address[]"
            }
          ],
          "internalType": "struct SplitSum.Group[]",
          "name": "",
          "type": "tuple[]"
        }
      ],
      "stateMutability": "view",
      "type": "function"
    },
    {
      "inputs": [
        {
          "internalType": "bytes32",
          "name": "settlementId",
          "type": "bytes32"
        }
      ],
      "name": "listSettlementMembers",
      "outputs": [
        {
          "components": [
            {
              "internalType": "address",
              "name": "memberAddress",
              "type": "address"
            },
            {
              "internalType": "uint256",
              "name": "amount",
              "type": "uint256"
            }
          ],
          "internalType": "struct SplitSum.SettlementMember[]",
          "name": "",
          "type": "tuple[]"
        }
      ],
      "stateMutability": "view",
      "type": "function"
    },
    {
      "inputs": [],
      "name": "owner",
      "outputs": [
        {
          "internalType": "address",
          "name": "",
          "type": "address"
        }
      ],
      "stateMutability": "view",
      "type": "function"
    },
    {
      "inputs": [
        {
          "internalType": "bytes32",
          "name": "groupId",
          "type": "bytes32"
        },
        {
          "internalType": "address",
          "name": "memberAddress",
          "type": "address"
        }
      ],
      "name": "removeGroupMembership",
      "outputs": [],
      "stateMutability": "nonpayable",
      "type": "function"
    },
    {
      "inputs": [
        {
          "internalType": "bytes32",
          "name": "groupId",
          "type": "bytes32"
        },
        {
          "internalType": "uint256",
          "name": "amount",
          "type": "uint256"
        },
        {
          "internalType": "uint256",
          "name": "createdAtTimestamp",
          "type": "uint256"
        }
      ],
      "name": "settleUp",
      "outputs": [],
      "stateMutability": "nonpayable",
      "type": "function"
    },
    {
      "inputs": [
        {
          "internalType": "string",
          "name": "name",
          "type": "string"
        },
        {
          "internalType": "string",
          "name": "email",
          "type": "string"
        }
      ],
      "name": "updateUserProfile",
      "outputs": [],
      "stateMutability": "nonpayable",
      "type": "function"
    }
  ],
  "bytecode": "0x60806040523480156200001157600080fd5b50604051620060cf380380620060cf83398181016040528101906200003791906200013d565b336000806101000a81548173ffffffffffffffffffffffffffffffffffffffff021916908373ffffffffffffffffffffffffffffffffffffffff16021790555080600c60006101000a81548173ffffffffffffffffffffffffffffffffffffffff021916908373ffffffffffffffffffffffffffffffffffffffff160217905550506200016f565b600080fd5b600073ffffffffffffffffffffffffffffffffffffffff82169050919050565b6000620000f182620000c4565b9050919050565b60006200010582620000e4565b9050919050565b6200011781620000f8565b81146200012357600080fd5b50565b60008151905062000137816200010c565b92915050565b600060208284031215620001565762000155620000bf565b5b6000620001668482850162000126565b91505092915050565b615f50806200017f6000396000f3fe608060405234801561001057600080fd5b506004361061010b5760003560e01c8063b03b45a8116100a2578063c3e6ace011610071578063c3e6ace0146102b8578063debadf73146102e8578063e55c806c14610318578063fa66b3bb14610334578063fada7508146103505761010b565b8063b03b45a81461020c578063b567d4ba14610228578063b7c5d60914610258578063bc54365c146102885761010b565b80636f61c744116100de5780636f61c744146101825780638da5cb5b146101a057806391a2497b146101be578063a8a264c2146101dc5761010b565b806318dae8d1146101105780633f42a3e81461012e57806340e069791461014a5780636dc442cd14610166575b600080fd5b61011861036c565b6040516101259190614551565b60405180910390f35b6101486004803603810190610143919061460e565b610624565b005b610164600480360381019061015f91906146a3565b61083a565b005b610180600480360381019061017b91906147d2565b610a10565b005b61018a610a9d565b60405161019791906148e5565b60405180910390f35b6101a8610c6e565b6040516101b59190614916565b60405180910390f35b6101c6610c97565b6040516101d39190614a4a565b60405180910390f35b6101f660048036038101906101f19190614a6c565b610ead565b6040516102039190614b77565b60405180910390f35b61022660048036038101906102219190614b99565b6111f5565b005b610242600480360381019061023d9190614a6c565b6117b0565b60405161024f9190614c70565b60405180910390f35b610272600480360381019061026d9190614a6c565b6119f9565b60405161027f9190614d70565b60405180910390f35b6102a2600480360381019061029d9190614a6c565b611caf565b6040516102af9190614e35565b60405180910390f35b6102d260048036038101906102cd9190614a6c565b611e7a565b6040516102df9190614ee0565b60405180910390f35b61030260048036038101906102fd9190614a6c565b611fb3565b60405161030f9190614ff9565b60405180910390f35b610332600480360381019061032d9190614b99565b612379565b005b61034e6004803603810190610349919061501b565b61242d565b005b61036a600480360381019061036591906150e4565b612753565b005b6060600460003373ffffffffffffffffffffffffffffffffffffffff1673ffffffffffffffffffffffffffffffffffffffff168152602001908152602001600020805480602002602001604051908101604052809291908181526020016000905b8282101561061b57838290600052602060002090600602016040518060c0016040529081600082015481526020016001820160009054906101000a900473ffffffffffffffffffffffffffffffffffffffff1673ffffffffffffffffffffffffffffffffffffffff1673ffffffffffffffffffffffffffffffffffffffff16815260200160028201805461046090615166565b80601f016020809104026020016040519081016040528092919081815260200182805461048c90615166565b80156104d95780601f106104ae576101008083540402835291602001916104d9565b820191906000526020600020905b8154815290600101906020018083116104bc57829003601f168201915b505050505081526020016003820180546104f290615166565b80601f016020809104026020016040519081016040528092919081815260200182805461051e90615166565b801561056b5780601f106105405761010080835404028352916020019161056b565b820191906000526020600020905b81548152906001019060200180831161054e57829003601f168201915b50505050508152602001600482015481526020016005820180548060200260200160405190810160405280929190818152602001828054801561060357602002820191906000526020600020905b8160009054906101000a900473ffffffffffffffffffffffffffffffffffffffff1673ffffffffffffffffffffffffffffffffffffffff16815260200190600101908083116105b9575b505050505081525050815260200190600101906103cd565b50505050905090565b600260003373ffffffffffffffffffffffffffffffffffffffff1673ffffffffffffffffffffffffffffffffffffffff16815260200190815260200160002060405180606001604052808773ffffffffffffffffffffffffffffffffffffffff16815260200186868080601f016020809104026020016040519081016040528093929190818152602001838380828437600081840152601f19601f82011690508083019250505050505050815260200184848080601f016020809104026020016040519081016040528093929190818152602001838380828437600081840152601f19601f82011690508083019250505050505050815250908060018154018082558091505060019003906000526020600020906003020160009091909190915060008201518160000160006101000a81548173ffffffffffffffffffffffffffffffffffffffff021916908373ffffffffffffffffffffffffffffffffffffffff16021790555060208201518160010190805190602001906107a8929190613e0f565b5060408201518160020190805190602001906107c5929190613e0f565b5050508473ffffffffffffffffffffffffffffffffffffffff163373ffffffffffffffffffffffffffffffffffffffff167f2b47ce0ceb25bb28a3bb1c206b896819d35511ed90e04905181b957c38283f7b8686868660405161082b94939291906151e5565b60405180910390a35050505050565b60405180606001604052803373ffffffffffffffffffffffffffffffffffffffff16815260200185858080601f016020809104026020016040519081016040528093929190818152602001838380828437600081840152601f19601f82011690508083019250505050505050815260200183838080601f016020809104026020016040519081016040528093929190818152602001838380828437600081840152601f19601f82011690508083019250505050505050815250600160003373ffffffffffffffffffffffffffffffffffffffff1673ffffffffffffffffffffffffffffffffffffffff16815260200190815260200160002060008201518160000160006101000a81548173ffffffffffffffffffffffffffffffffffffffff021916908373ffffffffffffffffffffffffffffffffffffffff1602179055506020820151816001019080519060200190610995929190613e0f565b5060408201518160020190805190602001906109b2929190613e0f565b509050503373ffffffffffffffffffffffffffffffffffffffff167fc13dafd9d9a1258e2f2de748cef0b799dbcc614ed620f5b0564ae615a759795c85858585604051610a0294939291906151e5565b60405180910390a250505050565b6000610a2188888888888888612eec565b9050610a2c81613492565b610a35816135e2565b3373ffffffffffffffffffffffffffffffffffffffff168882600001517fb057eca21f849e587619eab3dcd8d73d583d05c993656c2d81bd468a0b3bd8558a8a8a8a8a8a604051610a8b969594939291906152cb565b60405180910390a45050505050505050565b610aa5613e95565b600160003373ffffffffffffffffffffffffffffffffffffffff1673ffffffffffffffffffffffffffffffffffffffff1681526020019081526020016000206040518060600160405290816000820160009054906101000a900473ffffffffffffffffffffffffffffffffffffffff1673ffffffffffffffffffffffffffffffffffffffff1673ffffffffffffffffffffffffffffffffffffffff168152602001600182018054610b5590615166565b80601f0160208091040260200160405190810160405280929190818152602001828054610b8190615166565b8015610bce5780601f10610ba357610100808354040283529160200191610bce565b820191906000526020600020905b815481529060010190602001808311610bb157829003601f168201915b50505050508152602001600282018054610be790615166565b80601f0160208091040260200160405190810160405280929190818152602001828054610c1390615166565b8015610c605780601f10610c3557610100808354040283529160200191610c60565b820191906000526020600020905b815481529060010190602001808311610c4357829003601f168201915b505050505081525050905090565b60008060009054906101000a900473ffffffffffffffffffffffffffffffffffffffff16905090565b6060600260003373ffffffffffffffffffffffffffffffffffffffff1673ffffffffffffffffffffffffffffffffffffffff168152602001908152602001600020805480602002602001604051908101604052809291908181526020016000905b82821015610ea457838290600052602060002090600302016040518060600160405290816000820160009054906101000a900473ffffffffffffffffffffffffffffffffffffffff1673ffffffffffffffffffffffffffffffffffffffff1673ffffffffffffffffffffffffffffffffffffffff168152602001600182018054610d8190615166565b80601f0160208091040260200160405190810160405280929190818152602001828054610dad90615166565b8015610dfa5780601f10610dcf57610100808354040283529160200191610dfa565b820191906000526020600020905b815481529060010190602001808311610ddd57829003601f168201915b50505050508152602001600282018054610e1390615166565b80601f0160208091040260200160405190810160405280929190818152602001828054610e3f90615166565b8015610e8c5780601f10610e6157610100808354040283529160200191610e8c565b820191906000526020600020905b815481529060010190602001808311610e6f57829003601f168201915b50505050508152505081526020019060010190610cf8565b50505050905090565b60606000600660008481526020019081526020016000206040518060e001604052908160008201548152602001600182015481526020016002820160009054906101000a900473ffffffffffffffffffffffffffffffffffffffff1673ffffffffffffffffffffffffffffffffffffffff1673ffffffffffffffffffffffffffffffffffffffff16815260200160038201548152602001600482018054610f5390615166565b80601f0160208091040260200160405190810160405280929190818152602001828054610f7f90615166565b8015610fcc5780601f10610fa157610100808354040283529160200191610fcc565b820191906000526020600020905b815481529060010190602001808311610faf57829003601f168201915b50505050508152602001600582015481526020016006820180548060200260200160405190810160405280929190818152602001828054801561106457602002820191906000526020600020905b8160009054906101000a900473ffffffffffffffffffffffffffffffffffffffff1673ffffffffffffffffffffffffffffffffffffffff168152602001906001019080831161101a575b505050505081525050905060008160c0015190506000815167ffffffffffffffff81111561109557611094615322565b5b6040519080825280602002602001820160405280156110ce57816020015b6110bb613ecc565b8152602001906001900390816110b35790505b50905060005b82518110156111e95760008382815181106110f2576110f1615351565b5b602002602001015190506008600088815260200190815260200160002060008273ffffffffffffffffffffffffffffffffffffffff1673ffffffffffffffffffffffffffffffffffffffff1681526020019081526020016000206040518060400160405290816000820160009054906101000a900473ffffffffffffffffffffffffffffffffffffffff1673ffffffffffffffffffffffffffffffffffffffff1673ffffffffffffffffffffffffffffffffffffffff1681526020016001820154815250508383815181106111ca576111c9615351565b5b60200260200101819052505080806111e1906153af565b9150506110d4565b50809350505050919050565b813373ffffffffffffffffffffffffffffffffffffffff166003600083815260200190815260200160002060010160009054906101000a900473ffffffffffffffffffffffffffffffffffffffff1673ffffffffffffffffffffffffffffffffffffffff161461129a576040517f08c379a000000000000000000000000000000000000000000000000000000000815260040161129190615444565b60405180910390fd5b60006005600085815260200190815260200160002060008473ffffffffffffffffffffffffffffffffffffffff1673ffffffffffffffffffffffffffffffffffffffff1681526020019081526020016000206001015414611330576040517f08c379a0000000000000000000000000000000000000000000000000000000008152600401611327906154d6565b60405180910390fd5b6000600360008581526020019081526020016000209050600081600501905060005b8180549050811015611558578473ffffffffffffffffffffffffffffffffffffffff1682828154811061138857611387615351565b5b9060005260206000200160009054906101000a900473ffffffffffffffffffffffffffffffffffffffff1673ffffffffffffffffffffffffffffffffffffffff1614156115455781600183805490506113e191906154f6565b815481106113f2576113f1615351565b5b9060005260206000200160009054906101000a900473ffffffffffffffffffffffffffffffffffffffff168282815481106114305761142f615351565b5b9060005260206000200160006101000a81548173ffffffffffffffffffffffffffffffffffffffff021916908373ffffffffffffffffffffffffffffffffffffffff160217905550818054806114895761148861552a565b5b6001900381819060005260206000200160006101000a81549073ffffffffffffffffffffffffffffffffffffffff021916905590556005600087815260200190815260200160002060008673ffffffffffffffffffffffffffffffffffffffff1673ffffffffffffffffffffffffffffffffffffffff168152602001908152602001600020600080820160006101000a81549073ffffffffffffffffffffffffffffffffffffffff021916905560018201600090555050611558565b8080611550906153af565b915050611352565b506000600460008673ffffffffffffffffffffffffffffffffffffffff1673ffffffffffffffffffffffffffffffffffffffff168152602001908152602001600020905060005b81805490508110156117a757868282815481106115bf576115be615351565b5b90600052602060002090600602016000015414156117945781600183805490506115e991906154f6565b815481106115fa576115f9615351565b5b906000526020600020906006020182828154811061161b5761161a615351565b5b9060005260206000209060060201600082015481600001556001820160009054906101000a900473ffffffffffffffffffffffffffffffffffffffff168160010160006101000a81548173ffffffffffffffffffffffffffffffffffffffff021916908373ffffffffffffffffffffffffffffffffffffffff16021790555060028201816002019080546116ae90615166565b6116b9929190613efc565b5060038201816003019080546116ce90615166565b6116d9929190613efc565b506004820154816004015560058201816005019080546116fa929190613f89565b509050508180548061170f5761170e61552a565b5b60019003818190600052602060002090600602016000808201600090556001820160006101000a81549073ffffffffffffffffffffffffffffffffffffffff02191690556002820160006117639190613fdb565b6003820160006117739190613fdb565b600482016000905560058201600061178b919061401b565b505090556117a7565b808061179f906153af565b91505061159f565b50505050505050565b6117b861403c565b600360008381526020019081526020016000206040518060c0016040529081600082015481526020016001820160009054906101000a900473ffffffffffffffffffffffffffffffffffffffff1673ffffffffffffffffffffffffffffffffffffffff1673ffffffffffffffffffffffffffffffffffffffff16815260200160028201805461184690615166565b80601f016020809104026020016040519081016040528092919081815260200182805461187290615166565b80156118bf5780601f10611894576101008083540402835291602001916118bf565b820191906000526020600020905b8154815290600101906020018083116118a257829003601f168201915b505050505081526020016003820180546118d890615166565b80601f016020809104026020016040519081016040528092919081815260200182805461190490615166565b80156119515780601f1061192657610100808354040283529160200191611951565b820191906000526020600020905b81548152906001019060200180831161193457829003601f168201915b5050505050815260200160048201548152602001600582018054806020026020016040519081016040528092919081815260200182805480156119e957602002820191906000526020600020905b8160009054906101000a900473ffffffffffffffffffffffffffffffffffffffff1673ffffffffffffffffffffffffffffffffffffffff168152602001906001019080831161199f575b5050505050815250509050919050565b60606000600960008481526020019081526020016000206040518060c001604052908160008201548152602001600182015481526020016002820160009054906101000a900473ffffffffffffffffffffffffffffffffffffffff1673ffffffffffffffffffffffffffffffffffffffff1673ffffffffffffffffffffffffffffffffffffffff168152602001600382015481526020016004820154815260200160058201805480602002602001604051908101604052809291908181526020018280548015611b1e57602002820191906000526020600020905b8160009054906101000a900473ffffffffffffffffffffffffffffffffffffffff1673ffffffffffffffffffffffffffffffffffffffff1681526020019060010190808311611ad4575b505050505081525050905060008160a0015190506000815167ffffffffffffffff811115611b4f57611b4e615322565b5b604051908082528060200260200182016040528015611b8857816020015b611b7561408b565b815260200190600190039081611b6d5790505b50905060005b8251811015611ca3576000838281518110611bac57611bab615351565b5b60200260200101519050600b600088815260200190815260200160002060008273ffffffffffffffffffffffffffffffffffffffff1673ffffffffffffffffffffffffffffffffffffffff1681526020019081526020016000206040518060400160405290816000820160009054906101000a900473ffffffffffffffffffffffffffffffffffffffff1673ffffffffffffffffffffffffffffffffffffffff1673ffffffffffffffffffffffffffffffffffffffff168152602001600182015481525050838381518110611c8457611c83615351565b5b6020026020010181905250508080611c9b906153af565b915050611b8e565b50809350505050919050565b611cb76140bb565b600660008381526020019081526020016000206040518060e001604052908160008201548152602001600182015481526020016002820160009054906101000a900473ffffffffffffffffffffffffffffffffffffffff1673ffffffffffffffffffffffffffffffffffffffff1673ffffffffffffffffffffffffffffffffffffffff16815260200160038201548152602001600482018054611d5990615166565b80601f0160208091040260200160405190810160405280929190818152602001828054611d8590615166565b8015611dd25780601f10611da757610100808354040283529160200191611dd2565b820191906000526020600020905b815481529060010190602001808311611db557829003601f168201915b505050505081526020016005820154815260200160068201805480602002602001604051908101604052809291908181526020018280548015611e6a57602002820191906000526020600020905b8160009054906101000a900473ffffffffffffffffffffffffffffffffffffffff1673ffffffffffffffffffffffffffffffffffffffff1681526020019060010190808311611e20575b5050505050815250509050919050565b611e82614114565b600960008381526020019081526020016000206040518060c001604052908160008201548152602001600182015481526020016002820160009054906101000a900473ffffffffffffffffffffffffffffffffffffffff1673ffffffffffffffffffffffffffffffffffffffff1673ffffffffffffffffffffffffffffffffffffffff168152602001600382015481526020016004820154815260200160058201805480602002602001604051908101604052809291908181526020018280548015611fa357602002820191906000526020600020905b8160009054906101000a900473ffffffffffffffffffffffffffffffffffffffff1673ffffffffffffffffffffffffffffffffffffffff1681526020019060010190808311611f59575b5050505050815250509050919050565b60606000600360008481526020019081526020016000206040518060c0016040529081600082015481526020016001820160009054906101000a900473ffffffffffffffffffffffffffffffffffffffff1673ffffffffffffffffffffffffffffffffffffffff1673ffffffffffffffffffffffffffffffffffffffff16815260200160028201805461204590615166565b80601f016020809104026020016040519081016040528092919081815260200182805461207190615166565b80156120be5780601f10612093576101008083540402835291602001916120be565b820191906000526020600020905b8154815290600101906020018083116120a157829003601f168201915b505050505081526020016003820180546120d790615166565b80601f016020809104026020016040519081016040528092919081815260200182805461210390615166565b80156121505780601f1061212557610100808354040283529160200191612150565b820191906000526020600020905b81548152906001019060200180831161213357829003601f168201915b5050505050815260200160048201548152602001600582018054806020026020016040519081016040528092919081815260200182805480156121e857602002820191906000526020600020905b8160009054906101000a900473ffffffffffffffffffffffffffffffffffffffff1673ffffffffffffffffffffffffffffffffffffffff168152602001906001019080831161219e575b505050505081525050905060008160a0015190506000815167ffffffffffffffff81111561221957612218615322565b5b60405190808252806020026020018201604052801561225257816020015b61223f614166565b8152602001906001900390816122375790505b50905060005b825181101561236d57600083828151811061227657612275615351565b5b602002602001015190506005600088815260200190815260200160002060008273ffffffffffffffffffffffffffffffffffffffff1673ffffffffffffffffffffffffffffffffffffffff1681526020019081526020016000206040518060400160405290816000820160009054906101000a900473ffffffffffffffffffffffffffffffffffffffff1673ffffffffffffffffffffffffffffffffffffffff1673ffffffffffffffffffffffffffffffffffffffff16815260200160018201548152505083838151811061234e5761234d615351565b5b6020026020010181905250508080612365906153af565b915050612258565b50809350505050919050565b813373ffffffffffffffffffffffffffffffffffffffff166003600083815260200190815260200160002060010160009054906101000a900473ffffffffffffffffffffffffffffffffffffffff1673ffffffffffffffffffffffffffffffffffffffff161461241e576040517f08c379a000000000000000000000000000000000000000000000000000000000815260040161241590615444565b60405180910390fd5b6124288383613768565b505050565b60003330898960405160200161244694939291906155d1565b6040516020818303038152906040528051906020012090506000801b6003600083815260200190815260200160002060000154146124b9576040517f08c379a00000000000000000000000000000000000000000000000000000000081526004016124b090615658565b60405180910390fd5b6040518060c001604052808281526020013373ffffffffffffffffffffffffffffffffffffffff16815260200189898080601f016020809104026020016040519081016040528093929190818152602001838380828437600081840152601f19601f82011690508083019250505050505050815260200187878080601f016020809104026020016040519081016040528093929190818152602001838380828437600081840152601f19601f820116905080830192505050505050508152602001858152602001600067ffffffffffffffff81111561259b5761259a615322565b5b6040519080825280602002602001820160405280156125c95781602001602082028036833780820191505090505b50815250600360008381526020019081526020016000206000820151816000015560208201518160010160006101000a81548173ffffffffffffffffffffffffffffffffffffffff021916908373ffffffffffffffffffffffffffffffffffffffff160217905550604082015181600201908051906020019061264d929190613e0f565b50606082015181600301908051906020019061266a929190613e0f565b506080820151816004015560a0820151816005019080519060200190612691929190614196565b5090505061269f8133613768565b60005b838390508110156126f1576126de828585848181106126c4576126c3615351565b5b90506020020160208101906126d99190615678565b613768565b80806126e9906153af565b9150506126a2565b503373ffffffffffffffffffffffffffffffffffffffff16817fb7d2ff84afb3b033dcde79301920455ad777273866fa45ea565b619d81841ece8a8a8a8a8a6040516127419594939291906156a5565b60405180910390a35050505050505050565b60006005600085815260200190815260200160002060003373ffffffffffffffffffffffffffffffffffffffff1673ffffffffffffffffffffffffffffffffffffffff1681526020019081526020016000209050600073ffffffffffffffffffffffffffffffffffffffff168160000160009054906101000a900473ffffffffffffffffffffffffffffffffffffffff1673ffffffffffffffffffffffffffffffffffffffff16141561283b576040517f08c379a00000000000000000000000000000000000000000000000000000000081526004016128329061573a565b60405180910390fd5b6000816001015412612882576040517f08c379a0000000000000000000000000000000000000000000000000000000008152600401612879906157a6565b60405180910390fd5b600083826001015461289491906157c6565b13156128d5576040517f08c379a00000000000000000000000000000000000000000000000000000000081526004016128cc906158a6565b60405180910390fd5b82600c60009054906101000a900473ffffffffffffffffffffffffffffffffffffffff1673ffffffffffffffffffffffffffffffffffffffff1663dd62ed3e33306040518363ffffffff1660e01b81526004016129339291906158c6565b60206040518083038186803b15801561294b57600080fd5b505afa15801561295f573d6000803e3d6000fd5b505050506040513d601f19601f820116820180604052508101906129839190615904565b10156129c4576040517f08c379a00000000000000000000000000000000000000000000000000000000081526004016129bb906159a3565b60405180910390fd5b6000338585856040516020016129dd9493929190615a05565b6040516020818303038152906040528051906020012090506000801b600960008381526020019081526020016000206000015414612a50576040517f08c379a0000000000000000000000000000000000000000000000000000000008152600401612a4790615a9f565b60405180910390fd5b6000612a5e82878787613ae4565b9050600060036000888152602001908152602001600020600501805480602002602001604051908101604052809291908181526020018280548015612af857602002820191906000526020600020905b8160009054906101000a900473ffffffffffffffffffffffffffffffffffffffff1673ffffffffffffffffffffffffffffffffffffffff1681526020019060010190808311612aae575b50505050509050600086905060005b8251811015612e6f576000600560008b81526020019081526020016000206000858481518110612b3a57612b39615351565b5b602002602001015173ffffffffffffffffffffffffffffffffffffffff1673ffffffffffffffffffffffffffffffffffffffff16815260200190815260200160002090506000816001015413612b905750612e5c565b6000831415612b9f5750612e6f565b600083826001015412612bb25783612bb8565b81600101545b9050600c60009054906101000a900473ffffffffffffffffffffffffffffffffffffffff1673ffffffffffffffffffffffffffffffffffffffff166323b872dd338460000160009054906101000a900473ffffffffffffffffffffffffffffffffffffffff16846040518463ffffffff1660e01b8152600401612c3d93929190615abf565b602060405180830381600087803b158015612c5757600080fd5b505af1158015612c6b573d6000803e3d6000fd5b505050506040513d601f19601f82011682018060405250810190612c8f9190615b2e565b5080826001016000828254612ca49190615b5b565b925050819055508084612cb79190615b5b565b9350856005018260000160009054906101000a900473ffffffffffffffffffffffffffffffffffffffff169080600181540180825580915050600190039060005260206000200160009091909190916101000a81548173ffffffffffffffffffffffffffffffffffffffff021916908373ffffffffffffffffffffffffffffffffffffffff16021790555060405180604001604052808360000160009054906101000a900473ffffffffffffffffffffffffffffffffffffffff1673ffffffffffffffffffffffffffffffffffffffff16815260200182815250600b600089815260200190815260200160002060008460000160009054906101000a900473ffffffffffffffffffffffffffffffffffffffff1673ffffffffffffffffffffffffffffffffffffffff1673ffffffffffffffffffffffffffffffffffffffff16815260200190815260200160002060008201518160000160006101000a81548173ffffffffffffffffffffffffffffffffffffffff021916908373ffffffffffffffffffffffffffffffffffffffff1602179055506020820151816001015590505050505b8080612e67906153af565b915050612b07565b5086856001016000828254612e8491906157c6565b925050819055503373ffffffffffffffffffffffffffffffffffffffff1688857f2a408f921a73cc32588698f5ba165f585aaf175789583bc559801981ed4c35728a8a88600501604051612eda93929190615cdb565b60405180910390a45050505050505050565b612ef46140bb565b60008711612f37576040517f08c379a0000000000000000000000000000000000000000000000000000000008152600401612f2e90615d65565b60405180910390fd5b612f418833613d28565b60005b83839050811015612f9357612f8089858584818110612f6657612f65615351565b5b9050602002016020810190612f7b9190615678565b613d28565b8080612f8b906153af565b915050612f44565b506000338989898989604051602001612fb196959493929190615d85565b6040516020818303038152906040528051906020012090506000801b600660008381526020019081526020016000206000015414613024576040517f08c379a000000000000000000000000000000000000000000000000000000000815260040161301b90615e2e565b60405180910390fd5b6040518060e001604052808281526020018a81526020013373ffffffffffffffffffffffffffffffffffffffff16815260200189815260200188888080601f016020809104026020016040519081016040528093929190818152602001838380828437600081840152601f19601f820116905080830192505050505050508152602001868152602001858580806020026020016040519081016040528093929190818152602001838360200280828437600081840152601f19601f8201169050808301925050505050505081525060066000838152602001908152602001600020600082015181600001556020820151816001015560408201518160020160006101000a81548173ffffffffffffffffffffffffffffffffffffffff021916908373ffffffffffffffffffffffffffffffffffffffff160217905550606082015181600301556080820151816004019080519060200190613186929190613e0f565b5060a0820151816005015560c08201518160060190805190602001906131ad929190614196565b50905050600760008a815260200190815260200160002060066000838152602001908152602001600020908060018154018082558091505060019003906000526020600020906007020160009091909190915060008201548160000155600182015481600101556002820160009054906101000a900473ffffffffffffffffffffffffffffffffffffffff168160020160006101000a81548173ffffffffffffffffffffffffffffffffffffffff021916908373ffffffffffffffffffffffffffffffffffffffff16021790555060038201548160030155600482018160040190805461329990615166565b6132a4929190613efc565b506005820154816005015560068201816006019080546132c5929190613f89565b505050600660008281526020019081526020016000206040518060e001604052908160008201548152602001600182015481526020016002820160009054906101000a900473ffffffffffffffffffffffffffffffffffffffff1673ffffffffffffffffffffffffffffffffffffffff1673ffffffffffffffffffffffffffffffffffffffff1681526020016003820154815260200160048201805461336a90615166565b80601f016020809104026020016040519081016040528092919081815260200182805461339690615166565b80156133e35780601f106133b8576101008083540402835291602001916133e3565b820191906000526020600020905b8154815290600101906020018083116133c657829003601f168201915b50505050508152602001600582015481526020016006820180548060200260200160405190810160405280929190818152602001828054801561347b57602002820191906000526020600020905b8160009054906101000a900473ffffffffffffffffffffffffffffffffffffffff1673ffffffffffffffffffffffffffffffffffffffff1681526020019060010190808311613431575b505050505081525050915050979650505050505050565b60008160c001515182606001516134a99190615e7d565b905060005b8260c00151518110156135dd5760405180604001604052808460c0015183815181106134dd576134dc615351565b5b602002602001015173ffffffffffffffffffffffffffffffffffffffff16815260200183815250600860008560000151815260200190815260200160002060008560c00151848151811061353457613533615351565b5b602002602001015173ffffffffffffffffffffffffffffffffffffffff1673ffffffffffffffffffffffffffffffffffffffff16815260200190815260200160002060008201518160000160006101000a81548173ffffffffffffffffffffffffffffffffffffffff021916908373ffffffffffffffffffffffffffffffffffffffff1602179055506020820151816001015590505080806135d5906153af565b9150506134ae565b505050565b60008160c00151905060005b815181101561376357600082828151811061360c5761360b615351565b5b602002602001015190506000600560008660200151815260200190815260200160002060008373ffffffffffffffffffffffffffffffffffffffff1673ffffffffffffffffffffffffffffffffffffffff16815260200190815260200160002090506000600860008760000151815260200190815260200160002060008473ffffffffffffffffffffffffffffffffffffffff1673ffffffffffffffffffffffffffffffffffffffff1681526020019081526020016000206001015490508273ffffffffffffffffffffffffffffffffffffffff16866040015173ffffffffffffffffffffffffffffffffffffffff1614156137315780866060015161371291906154f6565b82600101600082825461372591906157c6565b9250508190555061374d565b808260010160008282546137459190615b5b565b925050819055505b505050808061375b906153af565b9150506135ee565b505050565b600073ffffffffffffffffffffffffffffffffffffffff166005600084815260200190815260200160002060008373ffffffffffffffffffffffffffffffffffffffff1673ffffffffffffffffffffffffffffffffffffffff16815260200190815260200160002060000160009054906101000a900473ffffffffffffffffffffffffffffffffffffffff1673ffffffffffffffffffffffffffffffffffffffff161461384a576040517f08c379a000000000000000000000000000000000000000000000000000000000815260040161384190615efa565b60405180910390fd5b60036000838152602001908152602001600020600501819080600181540180825580915050600190039060005260206000200160009091909190916101000a81548173ffffffffffffffffffffffffffffffffffffffff021916908373ffffffffffffffffffffffffffffffffffffffff160217905550600460008273ffffffffffffffffffffffffffffffffffffffff1673ffffffffffffffffffffffffffffffffffffffff168152602001908152602001600020600360008481526020019081526020016000209080600181540180825580915050600190039060005260206000209060060201600090919091909150600082015481600001556001820160009054906101000a900473ffffffffffffffffffffffffffffffffffffffff168160010160006101000a81548173ffffffffffffffffffffffffffffffffffffffff021916908373ffffffffffffffffffffffffffffffffffffffff16021790555060028201816002019080546139c190615166565b6139cc929190613efc565b5060038201816003019080546139e190615166565b6139ec929190613efc565b50600482015481600401556005820181600501908054613a0d929190613f89565b50505060405180604001604052808273ffffffffffffffffffffffffffffffffffffffff16815260200160008152506005600084815260200190815260200160002060008373ffffffffffffffffffffffffffffffffffffffff1673ffffffffffffffffffffffffffffffffffffffff16815260200190815260200160002060008201518160000160006101000a81548173ffffffffffffffffffffffffffffffffffffffff021916908373ffffffffffffffffffffffffffffffffffffffff160217905550602082015181600101559050505050565b60006040518060c001604052808681526020018581526020013373ffffffffffffffffffffffffffffffffffffffff168152602001848152602001838152602001600067ffffffffffffffff811115613b4057613b3f615322565b5b604051908082528060200260200182016040528015613b6e5781602001602082028036833780820191505090505b5081525060096000878152602001908152602001600020600082015181600001556020820151816001015560408201518160020160006101000a81548173ffffffffffffffffffffffffffffffffffffffff021916908373ffffffffffffffffffffffffffffffffffffffff160217905550606082015181600301556080820151816004015560a0820151816005019080519060200190613c10929190614196565b50905050600a600085815260200190815260200160002060096000878152602001908152602001600020908060018154018082558091505060019003906000526020600020906006020160009091909190915060008201548160000155600182015481600101556002820160009054906101000a900473ffffffffffffffffffffffffffffffffffffffff168160020160006101000a81548173ffffffffffffffffffffffffffffffffffffffff021916908373ffffffffffffffffffffffffffffffffffffffff16021790555060038201548160030155600482015481600401556005820181600501908054613d08929190613f89565b505050600960008681526020019081526020016000209050949350505050565b600073ffffffffffffffffffffffffffffffffffffffff166005600084815260200190815260200160002060008373ffffffffffffffffffffffffffffffffffffffff1673ffffffffffffffffffffffffffffffffffffffff16815260200190815260200160002060000160009054906101000a900473ffffffffffffffffffffffffffffffffffffffff1673ffffffffffffffffffffffffffffffffffffffff161415613e0b576040517f08c379a0000000000000000000000000000000000000000000000000000000008152600401613e029061573a565b60405180910390fd5b5050565b828054613e1b90615166565b90600052602060002090601f016020900481019282613e3d5760008555613e84565b82601f10613e5657805160ff1916838001178555613e84565b82800160010185558215613e84579182015b82811115613e83578251825591602001919060010190613e68565b5b509050613e919190614220565b5090565b6040518060600160405280600073ffffffffffffffffffffffffffffffffffffffff16815260200160608152602001606081525090565b6040518060400160405280600073ffffffffffffffffffffffffffffffffffffffff168152602001600081525090565b828054613f0890615166565b90600052602060002090601f016020900481019282613f2a5760008555613f78565b82601f10613f3b5780548555613f78565b82800160010185558215613f7857600052602060002091601f016020900482015b82811115613f77578254825591600101919060010190613f5c565b5b509050613f859190614220565b5090565b828054828255906000526020600020908101928215613fca5760005260206000209182015b82811115613fc9578254825591600101919060010190613fae565b5b509050613fd79190614220565b5090565b508054613fe790615166565b6000825580601f10613ff95750614018565b601f0160209004906000526020600020908101906140179190614220565b5b50565b50805460008255906000526020600020908101906140399190614220565b50565b6040518060c0016040528060008019168152602001600073ffffffffffffffffffffffffffffffffffffffff168152602001606081526020016060815260200160008152602001606081525090565b6040518060400160405280600073ffffffffffffffffffffffffffffffffffffffff168152602001600081525090565b6040518060e001604052806000801916815260200160008019168152602001600073ffffffffffffffffffffffffffffffffffffffff168152602001600081526020016060815260200160008152602001606081525090565b6040518060c001604052806000801916815260200160008019168152602001600073ffffffffffffffffffffffffffffffffffffffff1681526020016000815260200160008152602001606081525090565b6040518060400160405280600073ffffffffffffffffffffffffffffffffffffffff168152602001600081525090565b82805482825590600052602060002090810192821561420f579160200282015b8281111561420e5782518260006101000a81548173ffffffffffffffffffffffffffffffffffffffff021916908373ffffffffffffffffffffffffffffffffffffffff160217905550916020019190600101906141b6565b5b50905061421c9190614220565b5090565b5b80821115614239576000816000905550600101614221565b5090565b600081519050919050565b600082825260208201905092915050565b6000819050602082019050919050565b6000819050919050565b61427c81614269565b82525050565b600073ffffffffffffffffffffffffffffffffffffffff82169050919050565b60006142ad82614282565b9050919050565b6142bd816142a2565b82525050565b600081519050919050565b600082825260208201905092915050565b60005b838110156142fd5780820151818401526020810190506142e2565b8381111561430c576000848401525b50505050565b6000601f19601f8301169050919050565b600061432e826142c3565b61433881856142ce565b93506143488185602086016142df565b61435181614312565b840191505092915050565b6000819050919050565b61436f8161435c565b82525050565b600081519050919050565b600082825260208201905092915050565b6000819050602082019050919050565b60006143ad83836142b4565b60208301905092915050565b6000602082019050919050565b60006143d182614375565b6143db8185614380565b93506143e683614391565b8060005b838110156144175781516143fe88826143a1565b9750614409836143b9565b9250506001810190506143ea565b5085935050505092915050565b600060c08301600083015161443c6000860182614273565b50602083015161444f60208601826142b4565b50604083015184820360408601526144678282614323565b915050606083015184820360608601526144818282614323565b91505060808301516144966080860182614366565b5060a083015184820360a08601526144ae82826143c6565b9150508091505092915050565b60006144c78383614424565b905092915050565b6000602082019050919050565b60006144e78261423d565b6144f18185614248565b93508360208202850161450385614259565b8060005b8581101561453f578484038952815161452085826144bb565b945061452b836144cf565b925060208a01995050600181019050614507565b50829750879550505050505092915050565b6000602082019050818103600083015261456b81846144dc565b905092915050565b600080fd5b600080fd5b614586816142a2565b811461459157600080fd5b50565b6000813590506145a38161457d565b92915050565b600080fd5b600080fd5b600080fd5b60008083601f8401126145ce576145cd6145a9565b5b8235905067ffffffffffffffff8111156145eb576145ea6145ae565b5b602083019150836001820283011115614607576146066145b3565b5b9250929050565b60008060008060006060868803121561462a57614629614573565b5b600061463888828901614594565b955050602086013567ffffffffffffffff81111561465957614658614578565b5b614665888289016145b8565b9450945050604086013567ffffffffffffffff81111561468857614687614578565b5b614694888289016145b8565b92509250509295509295909350565b600080600080604085870312156146bd576146bc614573565b5b600085013567ffffffffffffffff8111156146db576146da614578565b5b6146e7878288016145b8565b9450945050602085013567ffffffffffffffff81111561470a57614709614578565b5b614716878288016145b8565b925092505092959194509250565b61472d81614269565b811461473857600080fd5b50565b60008135905061474a81614724565b92915050565b6147598161435c565b811461476457600080fd5b50565b60008135905061477681614750565b92915050565b60008083601f840112614792576147916145a9565b5b8235905067ffffffffffffffff8111156147af576147ae6145ae565b5b6020830191508360208202830111156147cb576147ca6145b3565b5b9250929050565b600080600080600080600060a0888a0312156147f1576147f0614573565b5b60006147ff8a828b0161473b565b97505060206148108a828b01614767565b965050604088013567ffffffffffffffff81111561483157614830614578565b5b61483d8a828b016145b8565b955095505060606148508a828b01614767565b935050608088013567ffffffffffffffff81111561487157614870614578565b5b61487d8a828b0161477c565b925092505092959891949750929550565b60006060830160008301516148a660008601826142b4565b50602083015184820360208601526148be8282614323565b915050604083015184820360408601526148d88282614323565b9150508091505092915050565b600060208201905081810360008301526148ff818461488e565b905092915050565b614910816142a2565b82525050565b600060208201905061492b6000830184614907565b92915050565b600081519050919050565b600082825260208201905092915050565b6000819050602082019050919050565b600060608301600083015161497560008601826142b4565b506020830151848203602086015261498d8282614323565b915050604083015184820360408601526149a78282614323565b9150508091505092915050565b60006149c0838361495d565b905092915050565b6000602082019050919050565b60006149e082614931565b6149ea818561493c565b9350836020820285016149fc8561494d565b8060005b85811015614a385784840389528151614a1985826149b4565b9450614a24836149c8565b925060208a01995050600181019050614a00565b50829750879550505050505092915050565b60006020820190508181036000830152614a6481846149d5565b905092915050565b600060208284031215614a8257614a81614573565b5b6000614a908482850161473b565b91505092915050565b600081519050919050565b600082825260208201905092915050565b6000819050602082019050919050565b604082016000820151614adb60008501826142b4565b506020820151614aee6020850182614366565b50505050565b6000614b008383614ac5565b60408301905092915050565b6000602082019050919050565b6000614b2482614a99565b614b2e8185614aa4565b9350614b3983614ab5565b8060005b83811015614b6a578151614b518882614af4565b9750614b5c83614b0c565b925050600181019050614b3d565b5085935050505092915050565b60006020820190508181036000830152614b918184614b19565b905092915050565b60008060408385031215614bb057614baf614573565b5b6000614bbe8582860161473b565b9250506020614bcf85828601614594565b9150509250929050565b600060c083016000830151614bf16000860182614273565b506020830151614c0460208601826142b4565b5060408301518482036040860152614c1c8282614323565b91505060608301518482036060860152614c368282614323565b9150506080830151614c4b6080860182614366565b5060a083015184820360a0860152614c6382826143c6565b9150508091505092915050565b60006020820190508181036000830152614c8a8184614bd9565b905092915050565b600081519050919050565b600082825260208201905092915050565b6000819050602082019050919050565b604082016000820151614cd460008501826142b4565b506020820151614ce76020850182614366565b50505050565b6000614cf98383614cbe565b60408301905092915050565b6000602082019050919050565b6000614d1d82614c92565b614d278185614c9d565b9350614d3283614cae565b8060005b83811015614d63578151614d4a8882614ced565b9750614d5583614d05565b925050600181019050614d36565b5085935050505092915050565b60006020820190508181036000830152614d8a8184614d12565b905092915050565b600060e083016000830151614daa6000860182614273565b506020830151614dbd6020860182614273565b506040830151614dd060408601826142b4565b506060830151614de36060860182614366565b5060808301518482036080860152614dfb8282614323565b91505060a0830151614e1060a0860182614366565b5060c083015184820360c0860152614e2882826143c6565b9150508091505092915050565b60006020820190508181036000830152614e4f8184614d92565b905092915050565b600060c083016000830151614e6f6000860182614273565b506020830151614e826020860182614273565b506040830151614e9560408601826142b4565b506060830151614ea86060860182614366565b506080830151614ebb6080860182614366565b5060a083015184820360a0860152614ed382826143c6565b9150508091505092915050565b60006020820190508181036000830152614efa8184614e57565b905092915050565b600081519050919050565b600082825260208201905092915050565b6000819050602082019050919050565b6000819050919050565b614f4181614f2e565b82525050565b604082016000820151614f5d60008501826142b4565b506020820151614f706020850182614f38565b50505050565b6000614f828383614f47565b60408301905092915050565b6000602082019050919050565b6000614fa682614f02565b614fb08185614f0d565b9350614fbb83614f1e565b8060005b83811015614fec578151614fd38882614f76565b9750614fde83614f8e565b925050600181019050614fbf565b5085935050505092915050565b600060208201905081810360008301526150138184614f9b565b905092915050565b60008060008060008060006080888a03121561503a57615039614573565b5b600088013567ffffffffffffffff81111561505857615057614578565b5b6150648a828b016145b8565b9750975050602088013567ffffffffffffffff81111561508757615086614578565b5b6150938a828b016145b8565b955095505060406150a68a828b01614767565b935050606088013567ffffffffffffffff8111156150c7576150c6614578565b5b6150d38a828b0161477c565b925092505092959891949750929550565b6000806000606084860312156150fd576150fc614573565b5b600061510b8682870161473b565b935050602061511c86828701614767565b925050604061512d86828701614767565b9150509250925092565b7f4e487b7100000000000000000000000000000000000000000000000000000000600052602260045260246000fd5b6000600282049050600182168061517e57607f821691505b6020821081141561519257615191615137565b5b50919050565b600082825260208201905092915050565b82818337600083830152505050565b60006151c48385615198565b93506151d18385846151a9565b6151da83614312565b840190509392505050565b600060408201905081810360008301526152008186886151b8565b905081810360208301526152158184866151b8565b905095945050505050565b6152298161435c565b82525050565b600082825260208201905092915050565b6000819050919050565b60006152596020840184614594565b905092915050565b6000602082019050919050565b600061527a838561522f565b935061528582615240565b8060005b858110156152be5761529b828461524a565b6152a588826143a1565b97506152b083615261565b925050600181019050615289565b5085925050509392505050565b60006080820190506152e06000830189615220565b81810360208301526152f38187896151b8565b90506153026040830186615220565b818103606083015261531581848661526e565b9050979650505050505050565b7f4e487b7100000000000000000000000000000000000000000000000000000000600052604160045260246000fd5b7f4e487b7100000000000000000000000000000000000000000000000000000000600052603260045260246000fd5b7f4e487b7100000000000000000000000000000000000000000000000000000000600052601160045260246000fd5b60006153ba8261435c565b91507fffffffffffffffffffffffffffffffffffffffffffffffffffffffffffffffff8214156153ed576153ec615380565b5b600182019050919050565b7f4e6f7420612067726f7570206f776e6572000000000000000000000000000000600082015250565b600061542e601183615198565b9150615439826153f8565b602082019050919050565b6000602082019050818103600083015261545d81615421565b9050919050565b7f63616e6e6f742072656d6f7665206d656d62657220696620746865792068617660008201527f65206e6f6e207a65726f2062616c616e63650000000000000000000000000000602082015250565b60006154c0603283615198565b91506154cb82615464565b604082019050919050565b600060208201905081810360008301526154ef816154b3565b9050919050565b60006155018261435c565b915061550c8361435c565b92508282101561551f5761551e615380565b5b828203905092915050565b7f4e487b7100000000000000000000000000000000000000000000000000000000600052603160045260246000fd5b60008160601b9050919050565b600061557182615559565b9050919050565b600061558382615566565b9050919050565b61559b615596826142a2565b615578565b82525050565b600081905092915050565b60006155b883856155a1565b93506155c58385846151a9565b82840190509392505050565b60006155dd828761558a565b6014820191506155ed828661558a565b6014820191506155fe8284866155ac565b915081905095945050505050565b7f67726f757020616c726561647920657869737473000000000000000000000000600082015250565b6000615642601483615198565b915061564d8261560c565b602082019050919050565b6000602082019050818103600083015261567181615635565b9050919050565b60006020828403121561568e5761568d614573565b5b600061569c84828501614594565b91505092915050565b600060608201905081810360008301526156c08187896151b8565b905081810360208301526156d58185876151b8565b90506156e46040830184615220565b9695505050505050565b7f4e6f7420696e207468652067726f7570206d656d626572730000000000000000600082015250565b6000615724601883615198565b915061572f826156ee565b602082019050919050565b6000602082019050818103600083015261575381615717565b9050919050565b7f4e6f20646562747320746f20736574746c652075700000000000000000000000600082015250565b6000615790601583615198565b915061579b8261575a565b602082019050919050565b600060208201905081810360008301526157bf81615783565b9050919050565b60006157d182614f2e565b91506157dc83614f2e565b9250817f7fffffffffffffffffffffffffffffffffffffffffffffffffffffffffffffff0383136000831215161561581757615816615380565b5b817f800000000000000000000000000000000000000000000000000000000000000003831260008312161561584f5761584e615380565b5b828201905092915050565b7f47726561746572207468616e20736574746c656d656e7420616d6f756e740000600082015250565b6000615890601e83615198565b915061589b8261585a565b602082019050919050565b600060208201905081810360008301526158bf81615883565b9050919050565b60006040820190506158db6000830185614907565b6158e86020830184614907565b9392505050565b6000815190506158fe81614750565b92915050565b60006020828403121561591a57615919614573565b5b6000615928848285016158ef565b91505092915050565b7f496e73756666696369656e7420616c6c6f77616e636520666f7220736574746c60008201527f656d656e7420616d6f756e740000000000000000000000000000000000000000602082015250565b600061598d602c83615198565b915061599882615931565b604082019050919050565b600060208201905081810360008301526159bc81615980565b9050919050565b6000819050919050565b6159de6159d982614269565b6159c3565b82525050565b6000819050919050565b6159ff6159fa8261435c565b6159e4565b82525050565b6000615a11828761558a565b601482019150615a2182866159cd565b602082019150615a3182856159ee565b602082019150615a4182846159ee565b60208201915081905095945050505050565b7f736574746c656d656e7420616c72656164792065786973747300000000000000600082015250565b6000615a89601983615198565b9150615a9482615a53565b602082019050919050565b60006020820190508181036000830152615ab881615a7c565b9050919050565b6000606082019050615ad46000830186614907565b615ae16020830185614907565b615aee6040830184615220565b949350505050565b60008115159050919050565b615b0b81615af6565b8114615b1657600080fd5b50565b600081519050615b2881615b02565b92915050565b600060208284031215615b4457615b43614573565b5b6000615b5284828501615b19565b91505092915050565b6000615b6682614f2e565b9150615b7183614f2e565b9250827f800000000000000000000000000000000000000000000000000000000000000001821260008412151615615bac57615bab615380565b5b827f7fffffffffffffffffffffffffffffffffffffffffffffffffffffffffffffff018213600084121615615be457615be3615380565b5b828203905092915050565b600081549050919050565b60008190508160005260206000209050919050565b60008160001c9050919050565b600073ffffffffffffffffffffffffffffffffffffffff82169050919050565b6000615c4f615c4a83615c0f565b615c1c565b9050919050565b6000615c628254615c3c565b9050919050565b6000600182019050919050565b6000615c8182615bef565b615c8b818561522f565b9350615c9683615bfa565b8060005b83811015615cce57615cab82615c56565b615cb588826143a1565b9750615cc083615c69565b925050600181019050615c9a565b5085935050505092915050565b6000606082019050615cf06000830186615220565b615cfd6020830185615220565b8181036040830152615d0f8184615c76565b9050949350505050565b7f616d6f756e74206d7573742062652067726561746572207468616e207a65726f600082015250565b6000615d4f602083615198565b9150615d5a82615d19565b602082019050919050565b60006020820190508181036000830152615d7e81615d42565b9050919050565b6000615d91828961558a565b601482019150615da182886159cd565b602082019150615db182876159ee565b602082019150615dc28285876155ac565b9150615dce82846159ee565b602082019150819050979650505050505050565b7f657870656e736520616c72656164792065786973747300000000000000000000600082015250565b6000615e18601683615198565b9150615e2382615de2565b602082019050919050565b60006020820190508181036000830152615e4781615e0b565b9050919050565b7f4e487b7100000000000000000000000000000000000000000000000000000000600052601260045260246000fd5b6000615e888261435c565b9150615e938361435c565b925082615ea357615ea2615e4e565b5b828204905092915050565b7f6d656d62657220616c7265616479206578697374730000000000000000000000600082015250565b6000615ee4601583615198565b9150615eef82615eae565b602082019050919050565b60006020820190508181036000830152615f1381615ed7565b905091905056fea26469706673582212201e3c5a7752fd382222422e6a1d58c93855900dd11915da8cf9b4776f041e55fc64736f6c63430008090033",
  "linkReferences": {},
  "deployedLinkReferences": {}
}